:020000040800F2
:1000000000000320B1030008E1030008E103000839
:10001000E1030008E1030008E1030008000000001C
:10002000000000000000000000000000E1030008E4
:10003000E103000800000000E1030008E1030008FC
:10004000E1030008E1030008E1030008E103000800
:10005000E1030008E1030008E1030008E1030008F0
:10006000E1030008E1030008E1030008E1030008E0
:10007000E1030008E1030008E1030008E1030008D0
:10008000E1030008E1030008E1030008E1030008C0
:10009000E1030008E1030008E1030008E1030008B0
:1000A000E1030008E1030008E1030008E1030008A0
:1000B000E9010008E1030008E1030008E10300088A
:1000C000E1030008E1030008E1030008E103000880
:1000D000E1030008E1030008E1030008E103000870
:1000E000E1030008E1030008E1030008E103000860
:1000F000E1030008E1030008E1030008E103000850
:10010000E1030008E1030008E1030008E10300083F
:10011000E1030008E1030008E1030008E10300082F
:10012000E1030008E1030008E1030008E10300081F
:10013000E1030008E1030008E1030008E10300080F
:10014000E1030008E1030008E1030008E1030008FF
:10015000E1030008E1030008E1030008E1030008EF
:10016000E1030008E1030008E1030008E1030008DF
:10017000E1030008E1030008E1030008E1030008CF
:10018000E1030008E1030008BFEECB0A10EE100AFD
:10019000C10501464CBF08380839135810EE103A13
:1001A000535810EE903A24BFB1EE400AF1EE600AC7
:1001B00048BFF1EE600A00BF00BF00BF074B084C0C
:1001C000084900224FF4800640F2011501201E6309
:1001D0001A645D6422604860FEE700BF0038024098
:1001E0000000024000E100E030B5624A624D5389F0
:1001F0009289624C9BB22DED088B00EE103A93B2BF
:1002000000EE903A87B0F8EE600AB8EE400AFFF7C9
:10021000D3FF5B4A5B4BD2ED006A1B785A4ADFED95
:100220005BAA92ED006ADFED5A9A9FED5ABA95EDFE
:10023000005A594859495A4A94ED00AA594CBEEE01
:10024000009A26EE897A05EE903A67EE2A3A564BE6
:10025000F8EEE55AF8EE007AB0EE463A65EE805ACE
:10026000D3ED004AC3ED005AA3EEA73A75EEE44A77
:10027000B1EE466A76EE666AB0EE654A37EE297AE6
:10028000A4EEA94AF0EE437AA6EE897AE6EE8B7ADE
:1002900034EE290A25EE0AAAF0EE478AB0EE678A04
:1002A000C0ED004A81ED004AC2ED006AFFF76CFF25
:1002B000F0EE487ADAEE007A3C4BB0EE687A9AEECD
:1002C000207A9A6818685968B0EE676AF6EE006A94
:1002D000A7EE296A03AB07C367EEA66A27EE899AE1
:1002E000B0EE665AA7EE0B5A06AAB4EEE96AF1EE32
:1002F00010FAF0EE495AD8BFB0EE696AE7EE0B5A31
:10030000B4EEC56AF1EE10FA48BFB0EE456AD7EE1A
:10031000297A4CBF01230023B4EEE56AF1EE10FA0E
:1003200048BFB0EE656AA7EE2A9A48BF0223B4EE32
:10033000E76AF1EE10FA58BFF0EE467AE7EE2A6A65
:1003400048BF0323F4EEC97AF1EE10FA48BFF0EE8D
:10035000497AF4EEE76A48BF0423F1EE10FAC8BF09
:10036000052302EB430333F80C3C238307B0BDECB9
:10037000088B30BD00000020E0000020D0000020ED
:10038000D8000020C8000020D4000020D7B35DBFF3
:1003900000000000D7B35D3FE4000020CC00002047
:1003A000DC00002000000140C4000020E40300083D
:1003B00007480849084A094B50F8044B41F8044BD8
:1003C000151AF9D142F8045B9342FBD1FFF7F6BE50
:1003D000F00300080000002000000020E8000020DA
:1003E000FEE700BF50405050405040504040504009
:0400000508000000EF
:00000001FF
