:020000040800F2
:1000000000000320C5020008F5020008F502000800
:10001000F5020008F5020008F502000800000000E3
:10002000000000000000000000000000F5020008D1
:10003000F502000800000000F5020008F5020008C3
:10004000F5020008F5020008F5020008F5020008B4
:10005000F5020008F5020008F5020008F5020008A4
:10006000F5020008F5020008F5020008F502000894
:10007000F5020008F5020008F5020008F502000884
:10008000F5020008F5020008F5020008F502000874
:10009000F5020008F5020008F5020008F502000864
:1000A000F5020008F5020008F5020008F502000854
:1000B000C1020008F5020008F5020008F502000878
:1000C000F5020008F5020008F5020008F502000834
:1000D000F5020008F5020008F5020008F502000824
:1000E000F5020008F5020008F5020008F502000814
:1000F000F5020008F5020008F5020008F502000804
:10010000F5020008F5020008F5020008F5020008F3
:10011000F5020008F5020008F5020008F5020008E3
:10012000F5020008F5020008F5020008F5020008D3
:10013000F5020008F5020008F5020008F5020008C3
:10014000F5020008F5020008F5020008F5020008B3
:10015000F5020008F5020008F5020008F5020008A3
:10016000F5020008F5020008F5020008F502000893
:10017000F5020008F5020008F5020008F502000883
:10018000F5020008F502000800BF00BF00BF00BF75
:10019000B1EEC00AFEE700BF3F4A404BD2ED005A25
:1001A000DFED3F6A93ED006A9FED3E4A10B5BEEE6B
:1001B000005A65EE857AF8EE003A67EEA66A2DEDF4
:1001C000068BB1EE467A9FED388A384CA6EEA36ACC
:1001D00082B037EE657A77EE885A94ED010AD4ED55
:1001E000004AE7EE055AA7EE046A20EE000AB0EED8
:1001F000659AA4EEA40AF0EE468AFFF7C9FFD4ED93
:10020000010AB0EE40AA94ED000AFFF7BFFF284AAA
:10021000284BD2ED009AD3ED007A2AEE29AA30EECF
:10022000080A6AEE279AFFF7AFFFF0EE495AB0EEE0
:10023000686AD9EEA05A00231F4A99EE806A1946CF
:10024000B0EE487AF0EE484AB7EE005AD2ED017AA5
:100250001046D0ED006A66EE277AD8B2E5EEA67AAF
:1002600001330832F4EEC77AF1EE10FA54BFF0EE23
:10027000647AF0EE457AF4EEC77AF1EE10FAC8BF70
:10028000B0EE677AC8BF0146302BDFD10B4BD96186
:1002900002B0BDEC068B10BD0C0000200800002051
:1002A000D7B35DBFD7B35D3F000000001000002052
:1002B0000400002000000020F80200080028004090
:1002C000FFF76ABF07480849084A094B50F8044B32
:1002D00041F8044B151AF9D142F8045B9342FBD163
:1002E000FFF758BF2803000800000020000000208E
:1002F00018000020FEE700BF000000000000000022
:1003000000000000000000000000000000000000ED
:1003100000000000000000000000000000000000DD
:080320000000000000000000D5
:0400000508000000EF
:00000001FF
