:020000040800F2
:10000000000003206D0200089D0200089D02000808
:100010009D0200089D0200089D02000800000000EB
:100020000000000000000000000000009D02000829
:100030009D020008000000009D0200089D020008CB
:100040009D0200089D0200089D0200089D02000814
:100050009D0200089D0200089D0200089D02000804
:100060009D0200089D0200089D0200089D020008F4
:100070009D0200089D0200089D0200089D020008E4
:100080009D0200089D0200089D0200089D020008D4
:100090009D0200089D0200089D0200089D020008C4
:1000A0009D0200089D0200089D0200089D020008B4
:1000B000ED0100089D0200089D0200089D02000855
:1000C0009D0200089D0200089D0200089D02000894
:1000D0009D0200089D0200089D0200089D02000884
:1000E0009D0200089D0200089D0200089D02000874
:1000F0009D0200089D0200089D0200089D02000864
:100100009D0200089D0200089D0200089D02000853
:100110009D0200089D0200089D0200089D02000843
:100120009D0200089D0200089D0200089D02000833
:100130009D0200089D0200089D0200089D02000823
:100140009D0200089D0200089D0200089D02000813
:100150009D0200089D0200089D0200089D02000803
:100160009D0200089D0200089D0200089D020008F3
:100170009D0200089D0200089D0200089D020008E3
:100180009D0200089D020008FFEEC01A08B411EE9F
:10019000903AFBEEC01AF0EE612A5B004CBF70EEA5
:1001A000611A70EE622A61EEA11A62EEA22A21EEB5
:1001B000812A22EE813A30EEC22A30EEC33A22EE94
:1001C000212A23EE223A30EE422A30EE433A08BC8E
:1001D00024BFB1EE422AB1EE433A48BFB1EE433AF2
:1001E00000BF00BF00BF00BFFEE700BF1B4A1C49A5
:1001F000538A938A9388D38853899289D1ED000AD0
:10020000184900B592B207EE902A9BB22DED028BF1
:10021000F8EEE78A07EE903A68EEA08AB8EEE78A31
:10022000D1ED007A28EEA80A28EE278A83B0A8EE3E
:10023000080AFFF7D7FFF0EE680AB0EE480AFFF7AA
:10024000CFFFDFED097A694630EE270A01A8FFF7F4
:100250009BFF03B0BDEC028B5DF804FB04000020A3
:1002600000000020C80000200000000007480849E6
:10027000084A094B50F8044B41F8044B151AF9D1C0
:1002800042F8045B9342FBD1FFF7AEBFA002000827
:100290000000002000000020CC000020FEE7FFFF4F
:0400000508000000EF
:00000001FF
