:020000040800F2
:10000000000003201503000845030008450300080D
:1000100045030008450300084503000800000000F0
:100020000000000000000000000000004503000880
:1000300045030008000000004503000845030008D0
:100040004503000845030008450300084503000870
:100050004503000845030008450300084503000860
:100060004503000845030008450300084503000850
:100070004503000845030008450300084503000840
:100080004503000845030008450300084503000830
:100090004503000845030008450300084503000820
:1000A0004503000845030008450300084503000810
:1000B000B102000845030008450300084503000895
:1000C00045030008450300084503000845030008F0
:1000D00045030008450300084503000845030008E0
:1000E00045030008450300084503000845030008D0
:1000F00045030008450300084503000845030008C0
:1001000045030008450300084503000845030008AF
:10011000450300084503000845030008450300089F
:10012000450300084503000845030008450300088F
:10013000450300084503000845030008450300087F
:10014000450300084503000845030008450300086F
:10015000450300084503000845030008450300085F
:10016000450300084503000845030008450300084F
:10017000450300084503000845030008450300083F
:10018000450300084503000800BF00BF00BF00BFD3
:10019000FEE700BF3D4A3E4B92ED006ADFED3D6A4F
:1001A000D3ED005ADFED3C4A3C4B30B5BEEE005A71
:1001B00066EE057AB8EE004A67EEA66A2DED048B6E
:1001C000B1EE657A9FED368AE6EE845A89B037EE55
:1001D000467A37EE886AE7EE245AA7EE056AF0EE13
:1001E000409A8DED000AB0EE600A83ED007AF0EEE1
:1001F000468AB0EE659ACDED010AFFF7C5FFF0EE35
:10020000495AB0EE686AD0EE295A0023254A8DED8E
:10021000030A90EEA96A1C46B0EE487ACDED040AB6
:10022000F0EE484AB7EE005AD2ED017A1146D1ED10
:10023000006A65EEA77AD9B2E6EE267A0133083273
:10024000F4EEC77AF1EE10FA54BFF0EE647AF0EEF5
:10025000457AF4EEC77AF1EE10FAC8BFB0EE677ACD
:10026000C8BF0C46302BDFD10F4B104D18685968B2
:100270009A6805AB07C308AB03EB440434F80C3CA5
:100280002B8309B0BDEC048B30BD00BFD000002033
:10029000CC000020D7B35DBFD7B35D3FD4000020B2
:1002A000000000005403000848030008000001405B
:1002B000134A5389928900B59BB200EE103A93B26B
:1002C00000EE903A83B0F8EE600AB8EE400AFFF70D
:1002D0005DFF0C4A0C4B92ED007ADFED0C0AF0EE5C
:1002E000407A93ED000A0A4B77EEA00A20EE070A47
:1002F000C3ED007AFFF74EFF03B05DF804FB00BFCB
:1003000000000020D8000020C400002000000000F1
:10031000C800002007480849084A094B50F8044B18
:1003200041F8044B151AF9D142F8045B9342FBD112
:10033000FFF72EBF8403000800000020000000200B
:10034000DC000020FEE700BF5040505040504050BD
:10035000404050400000000000000000000000008D
:10036000000000000000000000000000000000008D
:10037000000000000000000000000000000000007D
:040380000000000079
:0400000508000000EF
:00000001FF
