:020000040800F2
:100000000000032079030008A9030008A9030008E1
:10001000A9030008A9030008A903000800000000C4
:10002000000000000000000000000000A90300081C
:10003000A903000800000000A9030008A9030008A4
:10004000A9030008A9030008A9030008A9030008E0
:10005000A9030008A9030008A9030008A9030008D0
:10006000A9030008A9030008A9030008A9030008C0
:10007000A9030008A9030008A9030008A9030008B0
:10008000A9030008A9030008A9030008A9030008A0
:10009000A9030008A9030008A9030008A903000890
:1000A000A9030008A9030008A9030008A903000880
:1000B000E9010008A9030008A9030008A903000832
:1000C000A9030008A9030008A9030008A903000860
:1000D000A9030008A9030008A9030008A903000850
:1000E000A9030008A9030008A9030008A903000840
:1000F000A9030008A9030008A9030008A903000830
:10010000A9030008A9030008A9030008A90300081F
:10011000A9030008A9030008A9030008A90300080F
:10012000A9030008A9030008A9030008A9030008FF
:10013000A9030008A9030008A9030008A9030008EF
:10014000A9030008A9030008A9030008A9030008DF
:10015000A9030008A9030008A9030008A9030008CF
:10016000A9030008A9030008A9030008A9030008BF
:10017000A9030008A9030008A9030008A9030008AF
:10018000A9030008A9030008BFEECB0A10EE100A6D
:10019000C10501464CBF08380839135810EE103A13
:1001A000535810EE903A24BFB1EE400AF1EE600AC7
:1001B00048BFF1EE600A00BF00BF00BF074B084C0C
:1001C000084900224FF4800640F2011501201E6309
:1001D0001A645D6422604860FEE700BF0038024098
:1001E0000000024000E100E030B5544A544D53890C
:1001F0009289544C9BB22DED048B00EE103A93B2D1
:1002000000EE903A87B0F8EE600AB8EE400AFFF7C9
:10021000D3FF4D4B4D4A1B7892ED007A4C4ADFEDEF
:100220004D4AD2ED006A9FED4C8A9FED4C3A4C4806
:100230004C494D4AD5ED005AD4ED009A4B4C06EE90
:10024000103A4B4BB8EEC66ABEEE004A26EE006A84
:1002500067EE047A93ED005A83ED006A36EE455A54
:1002600067EEA44AF8EE002AF0EE463AF0EE668A0F
:10027000E5EE083AE4EEA28AF1EE666A36EEC77A57
:1002800037EE889AE7EE038A33EE880AA7EE049ADF
:1002900065EEA99A80ED005AC1ED003A82ED007A30
:1002A000FFF772FFD9EE808A324B99EEA09A9A68D6
:1002B0001868596828EE887A03ABA9EE087A07C354
:1002C000B4EEC87AF1EE10FAD4BFF0EE487AF0EE50
:1002D000477AB4EEE77AF1EE10FAC8BFF0EE477A4B
:1002E000B4EEE77ACCBF01230023F1EE10FAC8BFC9
:1002F000F0EE477AB4EEE77AC8BF0223F1EE10FAC7
:10030000C8BFF0EE477AB4EEE77AC8BF0323F1EE38
:1003100010FAC8BFF0EE477AB4EEE77AC8BF0423FC
:10032000F1EE10FAC8BF052306AA02EB430333F827
:100330000C3C238307B0BDEC048B30BD00000020D3
:10034000E0000020D0000020C8000020D8000020DD
:10035000D4000020D7B35DBF00000000D7B35D3FDD
:10036000E4000020CC000020DC0000200000014060
:10037000C4000020AC03000807480849084A094B9C
:1003800050F8044B41F8044B151AF9D142F8045BBC
:100390009342FBD1FFF712BFB80300080000002012
:1003A00000000020E8000020FEE700BF5040505051
:0803B000405040504040504015
:0400000508000000EF
:00000001FF
