:020000040800F2
:1000000000000320F102000821030008210300087A
:10001000210300082103000821030008000000005C
:1000200000000000000000000000000021030008A4
:10003000210300080000000021030008210300083C
:100040002103000821030008210300082103000800
:1000500021030008210300082103000821030008F0
:1000600021030008210300082103000821030008E0
:1000700021030008210300082103000821030008D0
:1000800021030008210300082103000821030008C0
:1000900021030008210300082103000821030008B0
:1000A00021030008210300082103000821030008A0
:1000B000ED020008210300082103000821030008C5
:1000C0002103000821030008210300082103000880
:1000D0002103000821030008210300082103000870
:1000E0002103000821030008210300082103000860
:1000F0002103000821030008210300082103000850
:10010000210300082103000821030008210300083F
:10011000210300082103000821030008210300082F
:10012000210300082103000821030008210300081F
:10013000210300082103000821030008210300080F
:1001400021030008210300082103000821030008FF
:1001500021030008210300082103000821030008EF
:1001600021030008210300082103000821030008DF
:1001700021030008210300082103000821030008CF
:10018000210300082103000800BF00BF00BF00BF1B
:10019000B1EEC00AFEE700BF484A494B92ED006A43
:1001A000DFED486AD3ED005A9FED474A474B30B523
:1001B000BEEE005A66EE057AF8EE003A67EEA66AE1
:1001C0002DED068BB1EE657A9FED418A414CE6EE4E
:1001D000A35A87B037EE467A37EE886A94ED010A63
:1001E000D4ED004A83ED007AA7EE056AE7EE045AE3
:1001F00020EE000AF0EE468AA4EEA40AB0EE659A5C
:10020000FFF7C6FFD4ED010AB0EE40AA94ED000A54
:10021000FFF7BCFF304A314BD2ED009AD3ED007AA4
:100220002AEE29AA30EE080A6AEE279AFFF7ACFFF9
:10023000F0EE495AB0EE686AD9EE805A0023284A97
:100240008DED010A99EEA06A1C46B0EE487ACDED1C
:10025000020AF0EE484AB7EE005AD2ED017A114692
:10026000D1ED006A65EEA77AD9B2E6EE267A0133BF
:100270000832F4EEC77AF1EE10FA54BFF0EE647A69
:10028000F0EE457AF4EEC77AF1EE10FAC8BFB0EEA0
:10029000677AC8BF0C46302BDFD1124B124D18685D
:1002A00059689A6803AB07C306AB03EB440434F800
:1002B0000C3C2B8307B0BDEC068B30BD0C0000203E
:1002C00008000020D7B35DBFD7B35D3F100000200A
:1002D00000000000140000200400002000000020A6
:1002E000300300082403000800000140FFF754BF5A
:1002F00007480849084A094B50F8044B41F8044B99
:10030000151AF9D142F8045B9342FBD1FFF742BFC3
:100310006003000800000020000000201C000020F6
:10032000FEE700BF504050504050405040405040C9
:1003300000000000000000000000000000000000BD
:1003400000000000000000000000000000000000AD
:10035000000000000000000000000000000000009D
:0400000508000000EF
:00000001FF
