:020000040800F2
:1000000000000320C5010008E5030008E50300081F
:10001000E5030008E5030008E50300080000000010
:10002000000000000000000000000000E5030008E0
:10003000E503000800000000E5030008E5030008F0
:10004000E5030008E5030008E5030008E5030008F0
:10005000E5030008E5030008E5030008E5030008E0
:10006000E5030008E5030008E5030008E5030008D0
:10007000E5030008E5030008E5030008E5030008C0
:10008000E5030008E5030008E5030008E5030008B0
:10009000E5030008E5030008E5030008E5030008A0
:1000A000E5030008E5030008E5030008E503000890
:1000B00015030008E1030008E5030008E503000854
:1000C000E5030008E5030008E5030008E503000870
:1000D000E5030008E5030008E5030008E503000860
:1000E000E5030008E5030008E5030008E503000850
:1000F000E5030008E5030008E5030008E503000840
:10010000E5030008E5030008E5030008E50300082F
:10011000E5030008E5030008E5030008E50300081F
:10012000E5030008E5030008E5030008E50300080F
:10013000E5030008E5030008E5030008E5030008FF
:10014000E5030008E5030008E5030008E5030008EF
:10015000E5030008E5030008E5030008E5030008DF
:10016000E5030008E5030008E5030008E5030008CF
:10017000E5030008E5030008E5030008E5030008BF
:10018000E5030008E5030008BFEEC00A10EE100A00
:10019000410001464CBF2238223940F20002C2F22F
:1001A0000002135810EE103A535810EE903A24BF44
:1001B000B1EE400AF1EE600A48BFF1EE600A00BFFE
:1001C00000BF00BFFEE700BF10B54A4A4A4B92EDA0
:1001D000006AD3ED006A494B494C2DED088BDFEDE9
:1001E000499A9FED49AADFED49AAFEEE008AF0EE9A
:1001F000467AB0EE697AE6EE8A7A88B0A6EEA87AF8
:10020000B1EE466A76EE666AB0EE40BAE6EEAA7ADB
:10021000A6EEA87A8DED000AB0EE600AB0EE678A0D
:10022000B0EE479AC3ED006ACDED010AFFF7ACFFCF
:10023000F0EE487AD0EE8B7A354BB0EE497A90EEFC
:100240000B7A9A6818685968B0EE676AF6EE006A29
:10025000A7EE296A05AB07C367EEA66A67EEA88A10
:10026000B0EE665AA7EE2A5A08AAB4EEE96AF1EE91
:1002700010FAF0EE685AD8BFB0EE696AE7EE2A5A73
:10028000B4EEC56AF1EE10FA48BFB0EE456AD7EE9B
:10029000297A4CBF01230023B4EEE56AF1EE10FA8F
:1002A00048BFB0EE656AE7EE0A8A48BF0223B4EEA3
:1002B000E76AF1EE10FA58BFF0EE467AE7EE0A6A06
:1002C00048BF0323F4EEE87AF1EE10FA48BFF0EEEF
:1002D000687AF4EEE76A48BF0423F1EE10FAC8BF6B
:1002E000052302EB430333F80C3C238308B0BDEC39
:1002F000088B10BDD4100020D8100020DC10002086
:100300000000014000000000D7B35DBFD7B35D3FE0
:10031000E80300082749DFED286A8A88CB884889E6
:10032000898992B207EE902A9BB230B5B8EE677A0F
:1003300007EE903A83B200EE103AF8EE677A8BB28D
:1003400000EE903A37EE667A77EEE67A1B4D1C4C5B
:1003500085ED007A83B0F8EE600AB8EE400AC4ED8D
:10036000007AFFF72DFF174A174B127893ED007AAA
:10037000DFED160A164907EE902AF8EEE77A154ADD
:10038000D1ED006A92ED006A1349144A67EE807A53
:1003900026EE260A37EEC77AC3ED007AE7EE207A1A
:1003A00081ED007A77EEA00AC2ED007AFFF70CFF2C
:1003B00003B030BD0410002000000045D410002020
:1003C000D8100020C8100020E0100020000000001D
:1003D000CC10002000100020E4100020D0100020DD
:1003E000704700BFFEE700BF5040505040504050A3
:0403F00040405040F9
:1003F4000000803FF4FF1F41CFFF1F4191FF1F41C9
:100404003AFF1F41CBFE1F4143FE1F41A2FD1F4186
:10041400E9FC1F4117FC1F412CFB1F4128FA1F4117
:100424000CF91F41D7F71F4189F61F4123F51F41DE
:10043400A4F31F410CF21F415BF01F4192EE1F41D8
:10044400B0EC1F41B5EA1F41A2E81F4176E61F4107
:1004540031E41F41D3E11F415DDF1F41CEDC1F4169
:1004640026DA1F4166D71F418DD41F419BD11F41FE
:1004740091CE1F416ECB1F4132C81F41DDC41F41C5
:1004840070C11F41EABD1F414CBA1F4194B61F41C0
:10049400C4B21F41DCAE1F41DBAA1F41C1A61F41EC
:1004A4008EA21F41439E1F41DF991F4162951F4148
:1004B400CD901F411F8C1F4158871F4179821F41D6
:1004C400817D1F4171781F4148731F41066E1F4192
:1004D400AB681F4138631F41AD5D1F4108581F4180
:1004E4004B521F41764C1F4188461F4181401F419A
:1004F400623A1F412A341F41D92D1F4170271F41E1
:10050400EE201F41541A1F41A1131F41D50C1F4156
:10051400F1051F41F4FE1E41DFF71E41B1F01E41FB
:100524006BE91E410CE21E4195DA1E4105D31E41C2
:100534005CCB1E419BC31E41C1BB1E41CFB31E41B8
:10054400C5AB1E41A1A31E41669B1E4112931E41D1
:10055400A58A1E4120821E4182791E41CC701E4113
:10056400FD671E41165F1E4116561E41FE4C1E417C
:10057400CE431E41853A1E4123311E41AA271E4106
:10058400171E1E416D141E41A90A1E41CE001E41B4
:10059400DAF61D41CDEC1D41A9E21D416BD81D4188
:1005A40016CE1D41A8C31D4121B91D4183AE1D4175
:1005B400CCA31D41FC981D41148E1D4114831D4183
:1005C400FC771D41CB6C1D4182611D4120561D41AC
:1005D400A74A1D41153F1D416A331D41A8271D41EE
:1005E400CD1B1D41D90F1D41CE031D41AAF71C414E
:1005F4006EEB1C411ADF1C41AED21C4129C61C41C2
:100604008CB91C41D7AC1C4109A01C4124931C414A
:1006140026861C4110791C41E26B1C419C5E1C41E6
:100624003D511C41C7431C4138361C4191281C4193
:10063400D21A1C41FB0C1C410CFF1B4104F11B4151
:10064400E5E21B41ADD41B415EC61B41F6B71B411D
:1006540076A91B41DF9A1B412F8C1B41677D1B41EF
:10066400876E1B418F5F1B417F501B4157411B41CC
:1006740017321B41BF221B4150131B41C8031B41AE
:1006840028F41A4170E41A41A1D41A41B9C41A4198
:10069400BAB41A41A2A41A4173941A412C841A417F
:1006A400CD731A4156631A41C7521A4121421A4165
:1006B40062311A418C201A419E0F1A4198FE194149
:1006C4007AED194145DC1941F8CA194193B9194128
:1006D40016A8194181961941D584194111731941FC
:1006E40035611941424F1941373D1941142B1941C4
:1006F400DA181941880619411EF418419DE1184180
:1007040004CF184153BC18418BA91841AC96184129
:10071400B4831841A57018417F5D1841414A1841BE
:10072400EB3618417E231841FA0F18415EFC17413D
:10073400AAE81741DFD41741FDC0174103AD1741A3
:10074400F2981741C984174189701741315C1741E8
:10075400C24717413C3317419E1E1741E90917410F
:100764001DF5164139E016413ECB16412CB6164113
:1007740002A11641C18B164169761641FA601641F1
:10078400734B1641D535164120201641540A1641A3
:1007940070F4154176DE154164C815413BB215412C
:1007A400FB9B1541A4851541366F1541B058154181
:1007B40014421541602B154196141541B4FD1441A2
:1007C400BCE61441ACCF144185B8144148A114418E
:1007D400F389144188721441055B14416C4314413C
:1007E400BC2B1441F513144117FC134122E41341AB
:1007F40016CC1341F3B31341BA9B13416A831341DB
:10080400036B134185521341F039134145211341C0
:1008140083081341AAEF1241BBD61241B5BD124160
:1008240098A41241648B12411A721241BA581241AF
:10083400423F1241B4251241100C124155F21141AC
:1008440083D811419BBE11419CA41141878A114157
:100854005B70114119561141C03B114151211141A5
:10086400CC06114130EC10417DD11041B5B6104198
:10087400D69B1041E0801041D5651041B34A104128
:100884007A2F10412C141041C7F80F414CDD0F4151
:10089400BAC10F4113A60F41558A0F41816E0F4112
:1008A40097520F4197360F41811A0F4154FE0E4162
:1008B40012E20E41B9C50E414AA90E41C68C0E4141
:1008C4002B700E417A530E41B3360E41D6190E41A8
:1008D400E4FC0D41DBDF0D41BDC20D4188A50D4196
:1008E4003E880D41DE6A0D41674D0D41DC2F0D41FF
:1008F4003A120D4182F40C41B5D60C41D2B80C41E8
:10090400D99A0C41CB7C0C41A65E0C416C400C4145
:100914001D220C41B8030C413DE50B41ACC60B4113
:1009240006A80B414B890B41796A0B41934B0B4150
:10093400962C0B41840D0B415DEE0A4120CF0A41F8
:10094400CEAF0A4167900A41E9700A4157510A4102
:10095400AF310A41F2110A4120F2094138D209416A
:100964003BB209412892094101720941C45109412C
:10097400723109410A1109418EF00841FCCF084146
:1009840056AF08419A8E0841C96D0841E34C0841AD
:10099400E82B0841D70A0841B2E9074178C8074162
:1009A40029A70741C58507414C640741BE42074159
:1009B4001B21074163FF064196DD0641B5BB064195
:1009C400BF990641B4770641945506415F33064109
:1009D40016110641B8EE054145CC0541BDA90541B6
:1009E4002187054171640541AB410541D11E054193
:1009F400E3FB0441E0D80441C8B504419C9204419E
:100A04005C6F0441074C04419D2804411F050441C7
:100A14008DE10341E6BD03412B9A03415C7603411A
:100A240078520341812E0341740A034154E6024182
:100A34001FC20241D69D0241797902410855024103
:100A440083300241E90B02413BE701417AC2014193
:100A5400A49D0141BA780141BD530141AB2E01412E
:100A6400850901414CE40041FEBE00419D990041CD
:100A7400277400419E4E004101290041500300416A
:100A840018BBFF40676FFF408F23FF4090D7FE40A5
:100A9400698BFE401A3FFE40A5F2FD4008A6FD40CA
:100AA4004459FD40590CFD4047BFFC400E72FC40C8
:100AB400AE24FC4026D7FB407889FB40A33BFB4097
:100AC400A7EDFA40859FFA403C51FA40CC02FA4027
:100AD40035B4F9407865F9409416F9408AC7F8406E
:100AE4005978F8400229F84085D9F740E189F74060
:100AF400173AF74027EAF640119AF640D449F640EF
:100B040072F9F540E9A8F5403B58F5406707F54010
:100B14006DB6F4404D65F4400714F4409BC2F340B5
:100B24000A71F340531FF34077CDF240757BF240D6
:100B34004E29F24001D7F1408F84F140F831F14061
:100B44003BDFF040598CF0405239F04026E6EF404C
:100B5400D592EF405F3FEF40C3EBEE400398EE4089
:100B64001E44EE4014F0ED40E69BED409347ED400B
:100B74001BF3EC407E9EEC40BD49EC40D7F4EB40C7
:100B8400CD9FEB409F4AEB404CF5EA40D59FEA40AD
:100B9400394AEA4079F4E940969EE9408E48E940B2
:100BA40062F2E840129CE8409E45E84006EFE740C8
:100BB4004B98E7406B41E74068EAE6404293E640E1
:100BC400F73BE64089E4E540F88CE5404335E540F1
:100BD4006ADDE4406F85E440502DE4400DD5E340E8
:100BE400A87CE3401F24E34073CBE240A572E240BB
:100BF400B319E2409EC0E1406667E1400C0EE1405B
:100C04008FB4E040EF5AE0402C01E04047A7DF40BA
:100C14003F4DDF4015F3DE40C898DE40593EDE40CC
:100C2400C8E3DD401489DD403E2EDD4046D3DC4080
:100C34002C78DC40EF1CDC4091C1DB401166DB40CA
:100C44006E0ADB40AAAEDA40C452DA40BDF6D9409F
:100C5400949AD940493ED940DCE1D8404E85D840E9
:100C64009F28D840CECBD740DC6ED740C911D7409F
:100C740094B4D6403E57D640C7F9D5402F9CD540B2
:100C8400763ED5409CE0D440A182D4408624D44012
:100C940049C6D340EC67D3406E09D340CFAAD240B3
:100CA400104CD24031EDD140318ED140112FD14082
:100CB400D0CFD0406F70D040EE10D0404DB1CF4077
:100CC4008B51CF40AAF1CE40A891CE408731CE407F
:100CD40046D1CD40E570CD406410CD40C4AFCC408A
:100CE400044FCC4024EECB40258DCB40072CCB4089
:100CF400C9CACA406B69CA40EF07CA4053A6C94073
:100D04009844C940BEE2C840C580C840AD1EC84032
:100D140076BCC740205AC740ACF7C6401895C640B9
:100D24006632C64096CFC540A66CC5409909C540F9
:100D34006CA6C4402243C440B9DFC340327CC340E4
:100D44008C18C340C9B4C240E750C240E8ECC1406B
:100D5400CA88C1408E24C14035C0C040BE5BC0407B
:100D640029F7BF407792BF40A62DBF40B9C8BE4007
:100D7400AE63BE4085FEBD403F99BD40DC33BD40FF
:100D84005CCEBC40BE68BC400303BC402C9DBB4051
:100D94003737BB4025D1BA40F76ABA40AB04BA40F2
:100DA400439EB940BE37B9401DD1B8405F6AB840D0
:100DB4008403B8408E9CB7407A35B7404BCEB640DA
:100DC400FF66B64097FFB5401398B5407330B54001
:100DD400B7C8B440DE60B440EAF8B340DB90B34037
:100DE400AF28B34068C0B2400558B24087EFB14065
:100DF400ED86B140381EB14067B5B0407B4CB04081
:100E040074E3AF40517AAF401411AF40BBA7AE407A
:100E1400483EAE40B9D4AD40106BAD404C01AD403E
:100E24006D97AC40732DAC405FC3AB403159AB40C0
:100E3400E7EEAA408484AA40061AAA406EAFA940ED
:100E4400BB44A940EFD9A840086FA8400704A840B4
:100E5400ED98A740B82DA7406AC2A6400257A64005
:100E640080EBA540E47FA5402F14A54061A8A440D1
:100E7400793CA44078D0A3405D64A34029F8A24003
:100E8400DC8BA240761FA240F6B2A1405E46A14090
:100E9400ADD9A040E36CA0400000A04004939F4063
:100EA400F0259F40C3B89E407E4B9E4020DE9D406F
:100EB400AA709D401C039D4075959C40B6279C409C
:100EC400DFB99B40F04B9B40E9DD9A40CA6F9A40E2
:100ED40093019A4044939940DE2499405FB6984028
:100EE400CA4798401CD99740586A97407CFB964063
:100EF400888C96407E1D96405CAE9540233F95407D
:100F0400D3CF94406C609440EEF093405981934069
:100F1400AD119340EBA192401232924022C2914013
:100F24001C529140FFE19040CC719040830190406D
:100F340023918F40AE208F4022B08E40803F8E4060
:100F4400C8CE8D40FA5D8D4017ED8C401D7C8C40E1
:100F54000E0B8C40EA998B40AF288B405FB78A40D8
:100F6400FA458A4080D48940F06289404AF1884039
:100F7400907F8840C10D8840DC9B8740E3298740EF
:100F8400D5B78640B24586407AD385402D618540E9
:100F9400CCEE8440577C8440CC0984402E97834017
:100FA4007B248340B4B18240D93E8240E9CB814066
:100FB400E6588140CEE58040A3728040C7FE7F4062
:100FC40021187F4054317E405F4A7D4043637C401A
:100FD400017C7B4097947A4006AD79404FC57840B8
:100FE40072DD77406EF57640440D7640F42475400A
:100FF4007F3C7440E3537340226B72403B827140E8
:101004002F997040FEAF6F40A8C66E402DDD6D4035
:101014008DF36C40C9096C40E01F6B40D3356A40C6
:10102400A24B69404C616840D3766740368C664079
:1010340075A1654091B6644089CB63405FE062402E
:1010440011F56140A00961400D1E604057325F40B8
:101054007E465E40835A5D40666E5C4027825B40FC
:10106400C6955A4043A959409EBC5840D8CF5740D2
:10107400F1E25640E8F55540BF085540741B544012
:10108400092E53407D405240D15251400465504096
:1010940017774F400A894E40DD9A4D4090AC4C4042
:1010A40024BE4B4098CF4A40EDE0494023F24840EB
:1010B40039034840311447400A254640C435454069
:1010C40060464440DE5643403D6742407E7741409F
:1010D400A2874040A7973F4090A73E405AB73D4063
:1010E40007C73C4098D63B400BE63A4061F539408F
:1010F4009A043940B7133840B82237409C313640FF
:1011040064403540104F3440A05D3340146C32408D
:101114006D7A3140AB883040CD962F40D4A42E4018
:10112400C0B22D4091C02C4048CE2B40E4DB2A4075
:1011340065E92940CDF628401A0428404D1127407E
:10114400661E2640662B25404C3824401945234012
:10115400CD512240685E2140E96A204052771F4009
:10116400A2831E40DA8F1D40F99B1C4000A81B403F
:10117400F0B31A40C7BF194086CB18402ED717408A
:10118400BEE2164038EE154099F91440E4041440C8
:1011940018101340361B12403C2611402D311040CC
:1011A400073C0F40CA460E4078510D40105C0C407D
:1011B40093660B4000710A40577B094099850840AB
:1011C400C68F0740DF990640E2A30540D1AD044035
:1011D400ABB7034071C1024022CB0140C0D40040F0
:1011E40093BCFF3F7FCFFD3F44E2FB3FE1F4F93F77
:1011F4005807F83FA919F63FD42BF43FD93DF23FE5
:10120400B94FF03F7361EE3F0973EC3F7A84EA3FD4
:10121400C795E83FF0A6E63FF5B7E43FD7C8E23FFD
:1012240096D9E03F32EADE3FACFADC3F030BDB3F0A
:10123400391BD93F4D2BD73F403BD53F124BD33FB2
:10124400C35AD13F546ACF3FC579CD3F1689CB3FAE
:101254004898C93F5BA7C73F4FB6C53F24C5C33FA6
:10126400DBD3C13F74E2BF3FEFF0BD3F4DFFBB3F57
:101274008E0DBA3FB21BB83FBA29B63FA637B43F6A
:101284007545B23F2953B03FC260AE3F406EAC3F9C
:10129400A47BAA3FED88A83F1C96A63F31A3A43F98
:1012A4002DB0A23F10BDA03FDAC99E3F8BD69C3F14
:1012B40024E39A3FA5EF983F0FFC963F6108953FC2
:1012C4009C14933FC020913FCE2C8F3FC6388D3F56
:1012D400A8448B3F7550893F2C5C873FCF67853F7F
:1012E4005C73833FD67E813F5F10CC3D48EFC83DA1
:1012F40013CEC53DBEACC23D4C8BBF3DBC69BC3DAD
:101304000F48B93D4526B63D5F04B33D5DE2AF3DB0
:1013140040C0AC3D099EA93DB77BA63D4C59A33DB9
:10132400C736A03D2A149D3D74F1993DA7CE963D44
:10133400C2AB933DC688903DB5658D3D8D428A3DD7
:10134400501F873DFEFB833D97D8803D3A6A7B3D25
:101354001F23753DDDDB6E3D7794683DED4C623DAA
:1013640040055C3D71BD553D81754F3D712D493D35
:1013740041E5423DF49C3C3D8954363D030C303DEF
:1013840061C3293DA57A233DCF311D3DE2E8163DD9
:10139400DD9F103DC1560A3D900D043D9788FB3CEE
:1013A400E6F5EE3C0F63E23C16D0D53CFC3CC93C70
:1013B400C3A9BC3C6D16B03CFB82A33C71EF963CC8
:1013C400CF5B8A3C2E907B3C9868623CDF40493C72
:1013D4000819303C14F1163C1492FB3BD841C93B2C
:1013E4007DF1963B1642493B2642C93A32318D245F
:0400000508000000EF
:00000001FF
