:020000040800F2
:1000000000000320C50100080504000805040008DD
:1000100005040008050400080504000800000000AD
:1000200000000000000000000000000005040008BF
:10003000050400080000000005040008050400088D
:10004000050400080504000805040008050400086C
:10005000050400080504000805040008050400085C
:10006000050400080504000805040008050400084C
:10007000050400080504000805040008050400083C
:10008000050400080504000805040008050400082C
:10009000050400080504000805040008050400081C
:1000A000050400080504000805040008050400080C
:1000B00029030008010400080504000805040008DD
:1000C00005040008050400080504000805040008EC
:1000D00005040008050400080504000805040008DC
:1000E00005040008050400080504000805040008CC
:1000F00005040008050400080504000805040008BC
:1001000005040008050400080504000805040008AB
:10011000050400080504000805040008050400089B
:10012000050400080504000805040008050400088B
:10013000050400080504000805040008050400087B
:10014000050400080504000805040008050400086B
:10015000050400080504000805040008050400085B
:10016000050400080504000805040008050400084B
:10017000050400080504000805040008050400083B
:100180000504000805040008BFEEC00A10EE100ABE
:10019000410001464CBF2238223940F20002C2F22F
:1001A0000002135810EE103A535810EE903A24BF44
:1001B000B1EE400AF1EE600A48BFF1EE600A00BFFE
:1001C00000BF00BFFEE700BF30B54F4A4F4B92ED76
:1001D000006AD3ED006A4E4B4E4D2DED088BDFEDDE
:1001E0004E9A9FED4EAADFED4EAAFEEE008AF0EE8B
:1001F000467AB0EE697AE6EE8A7A8BB004ACA6EE67
:10020000A87AB1EE466A76EE666AB0EE40BAE6EEDD
:10021000AA7AA6EEA87A8DED000AB0EE600AB0EEDA
:10022000678AB0EE479AC3ED006ACDED010AFFF789
:10023000ABFFF0EE487AD0EE8B7A3A4BB0EE497ACB
:1002400090EE0B7A59689A681868B0EE676AF6EE15
:10025000006AA7EE296A07C467EEA66A67EEA88A55
:10026000B0EE665AA7EE2A5A53F80C0FB4EEE96ABC
:10027000F1EE10FAF0EE685AD8BFB0EE696AE7EE18
:100280002A5A9A685968B4EEC56AF1EE10FA48BF66
:10029000B0EE456AD7EE297A4CBF01230023B4EEB5
:1002A000E56AF1EE10FA48BFB0EE656AE7EE0A8A39
:1002B00048BF022307ACB4EEE76AF1EE10FA58BF6C
:1002C000F0EE467AE7EE0A6A48BF032307C4F4EE6D
:1002D000E87AF1EE10FA48BFF0EE687AF4EEE76AD9
:1002E00048BF0423F1EE10FA0AAAC8BF052302EBA7
:1002F000430333F8182C2A8333F80C3CAB830BB040
:10030000BDEC088B30BD00BF241000202810002059
:100310002C1000200000014000000000D7B35DBF9A
:10032000D7B35D3F08040008F0B52A4EDFED2A6A16
:1003300035887488B288F388B6F80CE0F089378A7B
:10034000718AA4B29BB214FA85F413FA82F3C3F350
:100350004F03C4F34F0207EE102A07EE903AB8EEAF
:10036000477AF8EE677A80B289B237EE667A77EE2E
:10037000E67A10FA8EF0194A194B82ED007A11FADA
:1003800087F183B049104010C3ED007AFFF718FFE2
:10039000144B15491B78154C154D26680A68D4ED89
:1003A000007A95ED000A9FED137A134D134C00FB74
:1003B00003F006EE900AF8EE660A821A70EE870ADB
:1003C00020EE270A286008602260FFF7FDFE03B0D8
:1003D000F0BD00BF0410002000004842241000209F
:1003E0002810002018100020301000201C100020C1
:1003F0000010002000000000201000203410002019
:10040000704700BFFEE700BF504050504050405082
:10041000404050404040404040405040504050409C
:100420000000803FECFF7F3FB1FF7F3F4EFF7F3FEB
:10043000C4FE7F3F12FE7F3F38FD7F3F37FC7F3F8A
:100440000EFB7F3FBEF97F3F46F87F3FA7F67F3F19
:10045000E0F47F3FF2F27F3FDCF07F3F9EEE7F3F94
:1004600039EC7F3FADE97F3FF8E67F3F1DE47F3FFA
:1004700019E17F3FEFDD7F3F9CDA7F3F23D77F3F4E
:1004800081D37F3FB8CF7F3FC8CB7F3FB0C77F3F8F
:1004900071C37F3F0ABF7F3F7BBA7F3FC5B57F3FB8
:1004A000E8B07F3FE3AB7F3FB6A67F3F62A17F3FCF
:1004B000E69B7F3F43967F3F79907F3F878A7F3FD0
:1004C0006D847F3F2C7E7F3FC4777F3F34717F3FB9
:1004D0007D6A7F3F9E637F3F985C7F3F6A557F3F89
:1004E000154E7F3F98467F3FF43E7F3F28377F3F42
:1004F000352F7F3F1B277F3FD91E7F3F70167F3FE1
:10050000DF0D7F3F27057F3F47FC7E3F40F37E3F67
:1005100012EA7E3FBDE07E3F3FD77E3F9BCD7E3FD0
:10052000CFC37E3FDCB97E3FC2AF7E3F80A57E3F1A
:10053000169B7E3F86907E3FCE857E3FEF7A7E3F44
:10054000E86F7E3FBA647E3F65597E3FE94D7E3F4E
:1005500045427E3F7A367E3F882A7E3F6E1E7E3F32
:100560002D127E3FC5057E3F36F97D3F7FEC7D3FF6
:10057000A1DF7D3F9CD27D3F70C57D3F1CB87D3F94
:10058000A1AA7D3F009D7D3F368F7D3F46817D3F07
:100590002F737D3FF0647D3F8A567D3FFD477D3F51
:1005A00049397D3F6E2A7D3F6C1B7D3F430C7D3F6B
:1005B000F2FC7C3F7BED7C3FDCDD7C3F16CE7C3F5C
:1005C00029BE7C3F15AE7C3FDB9D7C3F798D7C3F17
:1005D000F07C7C3F406C7C3F695B7C3F6B4A7C3F9E
:1005E00046397C3FFA277C3F87167C3FED047C3FF1
:1005F0002DF37B3F45E17B3F36CF7B3F01BD7B3F0A
:10060000A4AA7B3F21987B3F77857B3FA6727B3FE7
:10061000AE5F7B3F8F4C7B3F4A397B3FDD257B3F85
:100620004A127B3F90FE7A3FAFEA7A3FA8D67A3FE4
:1006300079C27A3F24AE7A3FA9997A3F06857A3FFC
:100640003D707A3F4D5B7A3F36467A3FF9307A3FCC
:10065000951B7A3F0B067A3F5AF0793F82DA793F51
:1006600083C4793F5EAE793F1398793FA181793F8A
:10067000086B793F4954793F633D793F5726793F6D
:10068000240F793FCBF7783F4BE0783FA5C8783F00
:10069000D8B0783FE598783FCB80783F8C68783F3A
:1006A0002550783F9937783FE61E783F0C06783F13
:1006B0000DED773FE7D3773F9BBA773F28A1773F90
:1006C0008F87773FD06D773FEB53773FE039773FA8
:1006D000AE1F773F5605773FD8EA763F34D0763F56
:1006E0006AB5763F799A763F637F763F2664763F98
:1006F000C448763F3B2D763F8C11763FB7F5753F6A
:10070000BCD9753F9CBD753F55A1753FE884753FC9
:100710005668753F9D4B753FBE2E753FBA11753FAC
:1007200090F4743F40D7743FCAB9743F2E9C743F15
:100730006D7E743F8560743F7842743F4624743FF9
:10074000ED05743F6FE7733FCBC8733F01AA733F5A
:10075000128B733FFD6B733FC34C733F632D733F2D
:10076000DD0D733F32EE723F61CE723F6BAE723F72
:100770004F8E723F0E6E723FA74D723F1B2D723F20
:100780006A0C723F93EB713F97CA713F75A9713F35
:100790002E88713FC266713F3045713F7923713FAA
:1007A0009D01713F9BDF703F75BD703F299B703F7E
:1007B000B878703F2256703F6633703F8610703FA6
:1007C00081ED6F3F56CA6F3F06A76F3F92836F3F21
:1007D000F85F6F3F393C6F3F56186F3F4DF46E3FE7
:1007E00020D06E3FCDAB6E3F56876E3FBA626E3FF4
:1007F000F93D6E3F13196E3F09F46D3FD9CE6D3F41
:1008000085A96D3F0D846D3F6F5E6D3FAD386D3FC7
:10081000C6126D3FBBEC6C3F8BC66C3F36A06C3F85
:10082000BD796C3F1F536C3F5D2C6C3F76056C3F70
:100830006BDE6B3F3BB76B3FE78F6B3F6F686B3F88
:10084000D2406B3F10196B3F2BF16A3F21C96A3FC1
:10085000F3A06A3FA1786A3F2A506A3F8F276A3F18
:10086000D0FE693FEDD5693FE6AC693FBB83693F88
:100870006B5A693FF830693F6007693FA4DD683F04
:10088000C5B3683FC189683F9A5F683F4F35683F8D
:10089000E00A683F4CE0673F96B5673FBB8A673F19
:1008A000BC5F673F9A34673F5409673FEBDD663FA3
:1008B0005DB2663FAC86663FD85A663FE02E663F23
:1008C000C402663F85D6653F22AA653F9C7D653F91
:1008D000F250653F2524653F34F7643F20CA643FEA
:1008E000E99C643F8E6F643F1042643F6F14643F25
:1008F000ABE6633FC3B8633FB88A633F8A5C633F3C
:10090000392E633FC5FF623F2ED1623F73A2623F23
:100910009673623F9644623F7215623F2CE6613FD8
:10092000C3B6613F3787613F8857613FB627613F54
:10093000C2F7603FABC7603F7197603F1467603F8D
:100940009536603FF305603F2ED55F3F47A45F3F7C
:100950003D735F3F11425F3FC2105F3F51DF5E3F1B
:10096000BDAD5E3F077C5E3F2F4A5E3F34185E3F61
:1009700017E65D3FD7B35D3F76815D3FF24E5D3F49
:100980004C1C5D3F83E95C3F99B65C3F8C835C3FC8
:100990005E505C3F0D1D5C3F9BE95B3F06B65B3FD5
:1009A00050825B3F774E5B3F7D1A5B3F61E65A3F6B
:1009B00023B25A3FC37D5A3F41495A3F9E145A3F82
:1009C000D9DF593FF2AA593FEA75593FC040593F14
:1009D000750B593F08D6583F79A0583FC96A583F10
:1009E000F834583F05FF573FF1C8573FBB92573F78
:1009F000645C573FEC25573F53EF563F98B8563F3E
:100A0000BC81563FBF4A563FA113563F62DC553F5B
:100A100002A5553F816D553FDF35553F1CFE543FC4
:100A200038C6543F338E543F0D56543FC71D543F74
:100A300060E5533FD8AC533F2F74533F653B533F62
:100A40007B02533F71C9523F4690523FFA56523F84
:100A50008E1D523F01E4513F54AA513F8670513FD1
:100A60009836513F8AFC503F5BC2503F0D88503F43
:100A70009E4D503F0F13503F5FD84F3F909D4F3FCB
:100A8000A0624F3F91274F3F61EC4E3F11B14E3F67
:100A9000A2754E3F133A4E3F63FE4D3F94C24D3F09
:100AA000A5864D3F974A4D3F680E4D3F1AD24C3FA9
:100AB000AD954C3F1F594C3F721C4C3FA6DF4B3F3E
:100AC000BAA24B3FAF654B3F84284B3F3AEB4A3FBE
:100AD000D0AD4A3F47704A3F9F324A3FD8F4493F22
:100AE000F1B6493FEB78493FC73A493F83FC483F5D
:100AF00020BE483F9D7F483FFC40483F3C02483F66
:100B00005EC3473F6084473F4345473F0806473F32
:100B1000AEC6463F3587463F9D47463FE707463FBF
:100B200013C8453F1F88453F0D48453FDD07453FFA
:100B30008EC7443F2187443F9646443FEC05443FDF
:100B400024C5433F3D84433F3943433F1602433F5F
:100B5000D5C0423F767F423FF93D423F5EFC413F78
:100B6000A5BA413FCE78413FD936413FC6F4403F18
:100B700096B2403F4770403FDB2D403F52EB3F3F36
:100B8000AAA83F3FE5653F3F03233F3F03E03E3FC9
:100B9000E59C3E3FAA593E3F51163E3FDCD23D3FC9
:100BA000488F3D3F984B3D3FCA073D3FDFC33C3F29
:100BB000D77F3C3FB23B3C3F70F73B3F10B33B3FDE
:100BC000946E3B3FFB293B3F45E53A3F71A03A3FDE
:100BD000825B3A3F75163A3F4BD1393F058C393F1E
:100BE000A246393F2301393F87BB383FCE75383F96
:100BF000F92F383F07EA373FF9A3373FCF5D373F3B
:100C00008817373F25D1363FA68A363F0B44363FFB
:100C100053FD353F7FB6353F8F6F353F8428353FD5
:100C20005CE1343F189A343FB852343F3D0B343FB7
:100C3000A5C3333FF27B333F2334333F39EC323F9C
:100C400033A4323F115C323FD313323F7ACB313F72
:100C50000683313F763A313FCBF1303F05A9303F33
:100C60002360303F2617303F0DCE2F3FDA842F3FD1
:100C70008B3B2F3F22F22E3F9DA82E3FFE5E2E3F44
:100C800043152E3F6DCB2D3F7D812D3F72372D3F7C
:100C90004CED2C3F0BA32C3FB0582C3F3A0E2C3F71
:100CA000AAC32B3FFE782B3F392E2B3F59E32A3F17
:100CB0005E982A3F4A4D2A3F1B022A3FD1B6293F60
:100CC0006E6B293FF01F293F58D4283FA688283F44
:100CD000DA3C283FF4F0273FF4A4273FDA58273FB7
:100CE000A60C273F59C0263FF273263F7127263FA7
:100CF000D6DA253F218E253F5441253F6CF4243F11
:100D00006BA7243F515A243F1D0D243FD0BF233FE2
:100D10006A72233FEA24233F51D7223F9F89223F13
:100D2000D43B223FF0ED213FF29F213FDC51213F98
:100D3000AD03213F65B5203F0467203F8A18203F5F
:100D4000F8C91F3F4D7B1F3F892C1F3FADDD1E3F64
:100D5000B88E1E3FAB3F1E3F85F01D3F47A11D3F94
:100D6000F0511D3F81021D3FFAB21C3F5B631C3FE7
:100D7000A3131C3FD4C31B3FEC731B3FEC231B3F4F
:100D8000D5D31A3FA5831A3F5E331A3FFEE2193FBF
:100D90008792193FF841193F52F1183F94A0183F2C
:100DA000BE4F183FD1FE173FCCAD173FB05C173F89
:100DB0007D0B173F32BA163FCF68163F5617163FC6
:100DC000C5C5153F1E74153F5F22153F89D0143FDE
:100DD0009C7E143F982C143F7EDA133F4C88133FBF
:100DE0000436133FA4E3123F2F91123FA23E123F5D
:100DF000FFEB113F4699113F7646113F8FF3103FAD
:100E000092A0103F7F4D103F55FA0F3F15A70F3F9F
:100E1000BF530F3F53000F3FD1AC0E3F39590E3F28
:100E20008A050E3FC6B10D3FEC5D0D3FFC090D3F3D
:100E3000F6B50C3FDB610C3FA90D0C3F63B90B3FCE
:100E400006650B3F94100B3F0DBC0A3F70670A3FCD
:100E5000BD120A3FF6BD093F1969093F2714093F32
:100E600020BF083F036A083FD214083F8BBF073FEB
:100E70002F6A073FBF14073F3ABF063FA069063FEE
:100E8000F113063F2DBE053F5568053F6812053F2B
:100E900066BC043F5066043F2610043FE7B9033F99
:100EA0009463033F2C0D033FB1B6023F2160023F24
:100EB0007D09023FC4B2013FF85B013F1805013FC5
:100EC00024AE003F1C57003F0000003FA151FF3EF1
:100ED0001AA3FE3E6CF4FD3E9745FD3E9A96FC3EFD
:100EE00077E7FB3E2C38FB3EBB88FA3E23D9F93E20
:100EF0006529F93E8079F83E74C9F73E4319F73EFB
:100F0000EB68F63E6DB8F53EC907F53EFF56F43E78
:100F100010A6F33EFAF4F23EC043F23E5F92F13E79
:100F2000DAE0F03E2F2FF03E5F7DEF3E6BCBEE3EE2
:100F30005119EE3E1267ED3EAFB4EC3E2702EC3E97
:100F40007B4FEB3EAB9CEA3EB6E9E93E9D36E93E7F
:100F50006083E83EFFCFE73E7A1CE73ED268E63E7C
:100F600006B5E53E1601E53E034DE43ECD98E33E71
:100F700073E4E23EF72FE23E587BE13E95C6E03E49
:100F8000B011E03EA95CDF3E7FA7DE3E32F2DD3EDF
:100F9000C33CDD3E3287DC3E7FD1DB3EAA1BDB3E1D
:100FA000B365DA3E9BAFD93E61F9D83E0543D83EE2
:100FB000888CD73EE9D5D63E291FD63E4968D53E16
:100FC00047B1D43E24FAD33EE142D33E7D8BD23E9C
:100FD000F8D3D13E531CD13E8E64D03EA8ACCF3E58
:100FE000A3F4CE3E7D3CCE3E3884CD3ED3CBCC3E2A
:100FF0004E13CC3EAA5ACB3EE6A1CA3E03E9C93EF7
:101000000030C93EDF76C83E9FBDC73E4004C73EA4
:10101000C24AC63E2591C53E6AD7C43E901DC43E15
:101020009863C33E82A9C23E4EEFC13EFC34C13E2E
:101030008C7AC03EFFBFBF3E5305BF3E8B4ABE3ECB
:10104000A48FBD3EA1D4BC3E8019BC3E425EBB3ED7
:10105000E8A2BA3E70E7B93EDC2BB93E2B70B83E31
:101060005EB4B73E74F8B63E6E3CB63E4C80B53EBC
:101070000EC4B43EB307B43E3D4BB33EAC8EB23E5D
:10108000FED1B13E3615B13E5258B03E529BAF3EF6
:1010900038DEAE3E0221AE3EB263AD3E47A6AC3E68
:1010A000C1E8AB3E202BAB3E656DAA3E90AFA93E9A
:1010B000A1F1A83E9733A83E7475A73E36B7A63E69
:1010C000DFF8A53E6E3AA53EE47BA43E40BDA33EBC
:1010D00083FEA23EAD3FA23EBE80A13EB5C1A03E72
:1010E0009402A03E5A439F3E08849E3E9DC49D3E6E
:1010F0001A059D3E7E459C3ECA859B3EFFC59A3E95
:101100001B069A3E2046993E0C86983EE2C5973EC5
:10111000A005973E4645963ED584953E4DC4943EE7
:10112000AF03943EF942933E2D82923E4AC1913ED6
:101130005000913E403F903E1A7E8F3EDDBC8E3E79
:101140008BFB8D3E223A8D3EA4788C3E10B78B3EB1
:1011500066F58A3EA7338A3ED371893EE9AF883E61
:10116000EBED873ED72B873EAE69863E71A7853E65
:101170001FE5843EB822843E3D60833EAE9D823EA4
:101180000ADB813E5318813E8755803E50257F3EC5
:101190006A9F7D3E5D197C3E28937A3ECE0C793E57
:1011A0004C86773EA4FF753ED778743EE3F1723EDD
:1011B000CA6A713E8CE36F3E295C6E3EA1D46C3EE0
:1011C000F44C6B3E23C5693E2D3D683E14B5663E2A
:1011D000D72C653E77A4633EF41B623E4E93603E7F
:1011E000840A5F3E99815D3E8BF85B3E5C6F5A3EA0
:1011F0000AE6583E975C573E03D3553E4E49543E4F
:1012000078BF523E8135513E6AAB4F3E33214E3E50
:10121000DC964C3E660C4B3ED081493E1BF7473E68
:10122000476C463E54E1443E4356433E14CB413E58
:10123000C73F403E5CB43E3ED4283D3E2E9D3B3EE3
:101240006C113A3E8C85383E91F9363E796D353ECB
:1012500045E1333EF554323E89C8303E033C2F3ED3
:1012600061AF2D3EA4222C3ECD952A3EDB08293EBF
:10127000CF7B273EAAEE253E6B61243E12D4223E50
:10128000A046213E15B91F3E722B1E3EB69D1C3E48
:10129000E20F1B3EF681193EF2F3173ED765163E6C
:1012A000A5D7143E5B49133EFBBA113E842C103E79
:1012B000F79D0E3E540F0D3E9C800B3ECDF1093E36
:1012C000EA62083EF1D3063EE344053EC1B5033E63
:1012D0008A26023E4097003EC20FFE3DDEF0FA3DF8
:1012E000D3D1F73DA2B2F43D4B93F13DCE73EE3D29
:1012F0002D54EB3D6734E83D7D14E53D70F4E13D50
:1013000041D4DE3DEEB3DB3D7A93D83DE472D53D6A
:101310002E52D23D5631CF3D5F10CC3D48EFC83DF7
:1013200013CEC53DBEACC23D4C8BBF3DBC69BC3D80
:101330000F48B93D4526B63D5F04B33D5DE2AF3D84
:1013400040C0AC3D099EA93DB77BA63D4C59A33D8D
:10135000C736A03D2A149D3D74F1993DA7CE963D18
:10136000C2AB933DC688903DB5658D3D8D428A3DAB
:10137000501F873DFEFB833D97D8803D3A6A7B3DF9
:101380001F23753DDDDB6E3D7794683DED4C623D7E
:1013900040055C3D71BD553D81754F3D712D493D09
:1013A00041E5423DF49C3C3D8954363D030C303DC3
:1013B00061C3293DA57A233DCF311D3DE2E8163DAD
:1013C000DD9F103DC1560A3D900D043D9788FB3CC2
:1013D000E6F5EE3C0F63E23C16D0D53CFC3CC93C44
:1013E000C3A9BC3C6D16B03CFB82A33C71EF963C9C
:1013F000CF5B8A3C2E907B3C9868623CDF40493C46
:101400000819303C14F1163C1492FB3BD841C93BFF
:101410007DF1963B1642493B2642C93A32318D2432
:0400000508000000EF
:00000001FF
